{
  "_format": "hh-sol-artifact-1",
  "contractName": "Todo",
  "sourceName": "contracts/Todo.sol",
  "abi": [
    {
      "inputs": [],
      "name": "callerFunc",
      "outputs": [
        {
          "internalType": "address",
          "name": "",
          "type": "address"
        }
      ],
      "stateMutability": "view",
      "type": "function"
    },
    {
      "inputs": [
        {
          "internalType": "string",
          "name": "_content",
          "type": "string"
        },
        {
          "internalType": "string",
          "name": "_author",
          "type": "string"
        }
      ],
      "name": "createTask",
      "outputs": [],
      "stateMutability": "nonpayable",
      "type": "function"
    },
    {
      "inputs": [
        {
          "internalType": "uint256",
          "name": "_id",
          "type": "uint256"
        }
      ],
      "name": "getTask",
      "outputs": [
        {
          "internalType": "uint256",
          "name": "",
          "type": "uint256"
        },
        {
          "internalType": "address",
          "name": "",
          "type": "address"
        },
        {
          "internalType": "string",
          "name": "",
          "type": "string"
        },
        {
          "internalType": "string",
          "name": "",
          "type": "string"
        },
        {
          "internalType": "bool",
          "name": "",
          "type": "bool"
        }
      ],
      "stateMutability": "view",
      "type": "function"
    },
    {
      "inputs": [],
      "name": "getTasks",
      "outputs": [
        {
          "components": [
            {
              "internalType": "uint256",
              "name": "taskid",
              "type": "uint256"
            },
            {
              "internalType": "address",
              "name": "writer",
              "type": "address"
            },
            {
              "internalType": "string",
              "name": "content",
              "type": "string"
            },
            {
              "internalType": "string",
              "name": "author",
              "type": "string"
            },
            {
              "internalType": "bool",
              "name": "done",
              "type": "bool"
            }
          ],
          "internalType": "struct Todo.Task[]",
          "name": "",
          "type": "tuple[]"
        }
      ],
      "stateMutability": "view",
      "type": "function"
    },
    {
      "inputs": [
        {
          "internalType": "uint256",
          "name": "_index",
          "type": "uint256"
        }
      ],
      "name": "setDoneTrue",
      "outputs": [],
      "stateMutability": "nonpayable",
      "type": "function"
    },
    {
      "inputs": [
        {
          "internalType": "uint256",
          "name": "",
          "type": "uint256"
        }
      ],
      "name": "tasks",
      "outputs": [
        {
          "internalType": "uint256",
          "name": "taskid",
          "type": "uint256"
        },
        {
          "internalType": "address",
          "name": "writer",
          "type": "address"
        },
        {
          "internalType": "string",
          "name": "content",
          "type": "string"
        },
        {
          "internalType": "string",
          "name": "author",
          "type": "string"
        },
        {
          "internalType": "bool",
          "name": "done",
          "type": "bool"
        }
      ],
      "stateMutability": "view",
      "type": "function"
    }
  ],
  "bytecode": "0x608060405234801561001057600080fd5b50611079806100206000396000f3fe608060405234801561001057600080fd5b50600436106100625760003560e01c806304a87e38146100675780631d65e77e14610085578063272d98af146100b9578063292a4585146100d757806337d18bbd146100f35780638d9776721461010f575b600080fd5b61006f610143565b60405161007c9190610d91565b60405180910390f35b61009f600480360381019061009a9190610b7b565b610341565b6040516100b0959493929190610db3565b60405180910390f35b6100c16105d0565b6040516100ce9190610d76565b60405180910390f35b6100f160048036038101906100ec9190610b0f565b6105dd565b005b61010d60048036038101906101089190610b7b565b610704565b005b61012960048036038101906101249190610b7b565b61086c565b60405161013a959493929190610db3565b60405180910390f35b60606000805480602002602001604051908101604052809291908181526020016000905b8282101561033857838290600052602060002090600502016040518060a0016040529081600082015481526020016001820160009054906101000a900473ffffffffffffffffffffffffffffffffffffffff1673ffffffffffffffffffffffffffffffffffffffff1673ffffffffffffffffffffffffffffffffffffffff1681526020016002820180546101fa90610f5a565b80601f016020809104026020016040519081016040528092919081815260200182805461022690610f5a565b80156102735780601f1061024857610100808354040283529160200191610273565b820191906000526020600020905b81548152906001019060200180831161025657829003601f168201915b5050505050815260200160038201805461028c90610f5a565b80601f01602080910402602001604051908101604052809291908181526020018280546102b890610f5a565b80156103055780601f106102da57610100808354040283529160200191610305565b820191906000526020600020905b8154815290600101906020018083116102e857829003601f168201915b505050505081526020016004820160009054906101000a900460ff16151515158152505081526020019060010190610167565b50505050905090565b60008060608060008560008781548110610384577f4e487b7100000000000000000000000000000000000000000000000000000000600052603260045260246000fd5b906000526020600020906005020160010160009054906101000a900473ffffffffffffffffffffffffffffffffffffffff16600088815481106103f0577f4e487b7100000000000000000000000000000000000000000000000000000000600052603260045260246000fd5b90600052602060002090600502016002016000898154811061043b577f4e487b7100000000000000000000000000000000000000000000000000000000600052603260045260246000fd5b906000526020600020906005020160030160008a81548110610486577f4e487b7100000000000000000000000000000000000000000000000000000000600052603260045260246000fd5b906000526020600020906005020160040160009054906101000a900460ff168280546104b190610f5a565b80601f01602080910402602001604051908101604052809291908181526020018280546104dd90610f5a565b801561052a5780601f106104ff5761010080835404028352916020019161052a565b820191906000526020600020905b81548152906001019060200180831161050d57829003601f168201915b5050505050925081805461053d90610f5a565b80601f016020809104026020016040519081016040528092919081815260200182805461056990610f5a565b80156105b65780601f1061058b576101008083540402835291602001916105b6565b820191906000526020600020905b81548152906001019060200180831161059957829003601f168201915b505050505091509450945094509450945091939590929450565b6000803390508091505090565b600033905060006040518060a0016040528060008054905081526020018373ffffffffffffffffffffffffffffffffffffffff1681526020018581526020018481526020016000151581525090806001815401808255809150506001900390600052602060002090600502016000909190919091506000820151816000015560208201518160010160006101000a81548173ffffffffffffffffffffffffffffffffffffffff021916908373ffffffffffffffffffffffffffffffffffffffff16021790555060408201518160020190805190602001906106bf9291906109ef565b5060608201518160030190805190602001906106dc9291906109ef565b5060808201518160040160006101000a81548160ff0219169083151502179055505050505050565b60003390508073ffffffffffffffffffffffffffffffffffffffff166000838154811061075a577f4e487b7100000000000000000000000000000000000000000000000000000000600052603260045260246000fd5b906000526020600020906005020160010160009054906101000a900473ffffffffffffffffffffffffffffffffffffffff1673ffffffffffffffffffffffffffffffffffffffff16146107ac57600080fd5b600082815481106107e6577f4e487b7100000000000000000000000000000000000000000000000000000000600052603260045260246000fd5b906000526020600020906005020160040160009054906101000a900460ff161560008381548110610840577f4e487b7100000000000000000000000000000000000000000000000000000000600052603260045260246000fd5b906000526020600020906005020160040160006101000a81548160ff0219169083151502179055505050565b6000818154811061087c57600080fd5b90600052602060002090600502016000915090508060000154908060010160009054906101000a900473ffffffffffffffffffffffffffffffffffffffff16908060020180546108cb90610f5a565b80601f01602080910402602001604051908101604052809291908181526020018280546108f790610f5a565b80156109445780601f1061091957610100808354040283529160200191610944565b820191906000526020600020905b81548152906001019060200180831161092757829003601f168201915b50505050509080600301805461095990610f5a565b80601f016020809104026020016040519081016040528092919081815260200182805461098590610f5a565b80156109d25780601f106109a7576101008083540402835291602001916109d2565b820191906000526020600020905b8154815290600101906020018083116109b557829003601f168201915b5050505050908060040160009054906101000a900460ff16905085565b8280546109fb90610f5a565b90600052602060002090601f016020900481019282610a1d5760008555610a64565b82601f10610a3657805160ff1916838001178555610a64565b82800160010185558215610a64579182015b82811115610a63578251825591602001919060010190610a48565b5b509050610a719190610a75565b5090565b5b80821115610a8e576000816000905550600101610a76565b5090565b6000610aa5610aa084610e39565b610e14565b905082815260208101848484011115610abd57600080fd5b610ac8848285610f18565b509392505050565b600082601f830112610ae157600080fd5b8135610af1848260208601610a92565b91505092915050565b600081359050610b098161102c565b92915050565b60008060408385031215610b2257600080fd5b600083013567ffffffffffffffff811115610b3c57600080fd5b610b4885828601610ad0565b925050602083013567ffffffffffffffff811115610b6557600080fd5b610b7185828601610ad0565b9150509250929050565b600060208284031215610b8d57600080fd5b6000610b9b84828501610afa565b91505092915050565b6000610bb08383610cdb565b905092915050565b610bc181610ed0565b82525050565b610bd081610ed0565b82525050565b6000610be182610e7a565b610beb8185610e9d565b935083602082028501610bfd85610e6a565b8060005b85811015610c395784840389528151610c1a8582610ba4565b9450610c2583610e90565b925060208a01995050600181019050610c01565b50829750879550505050505092915050565b610c5481610ee2565b82525050565b610c6381610ee2565b82525050565b6000610c7482610e85565b610c7e8185610eae565b9350610c8e818560208601610f27565b610c978161101b565b840191505092915050565b6000610cad82610e85565b610cb78185610ebf565b9350610cc7818560208601610f27565b610cd08161101b565b840191505092915050565b600060a083016000830151610cf36000860182610d58565b506020830151610d066020860182610bb8565b5060408301518482036040860152610d1e8282610c69565b91505060608301518482036060860152610d388282610c69565b9150506080830151610d4d6080860182610c4b565b508091505092915050565b610d6181610f0e565b82525050565b610d7081610f0e565b82525050565b6000602082019050610d8b6000830184610bc7565b92915050565b60006020820190508181036000830152610dab8184610bd6565b905092915050565b600060a082019050610dc86000830188610d67565b610dd56020830187610bc7565b8181036040830152610de78186610ca2565b90508181036060830152610dfb8185610ca2565b9050610e0a6080830184610c5a565b9695505050505050565b6000610e1e610e2f565b9050610e2a8282610f8c565b919050565b6000604051905090565b600067ffffffffffffffff821115610e5457610e53610fec565b5b610e5d8261101b565b9050602081019050919050565b6000819050602082019050919050565b600081519050919050565b600081519050919050565b6000602082019050919050565b600082825260208201905092915050565b600082825260208201905092915050565b600082825260208201905092915050565b6000610edb82610eee565b9050919050565b60008115159050919050565b600073ffffffffffffffffffffffffffffffffffffffff82169050919050565b6000819050919050565b82818337600083830152505050565b60005b83811015610f45578082015181840152602081019050610f2a565b83811115610f54576000848401525b50505050565b60006002820490506001821680610f7257607f821691505b60208210811415610f8657610f85610fbd565b5b50919050565b610f958261101b565b810181811067ffffffffffffffff82111715610fb457610fb3610fec565b5b80604052505050565b7f4e487b7100000000000000000000000000000000000000000000000000000000600052602260045260246000fd5b7f4e487b7100000000000000000000000000000000000000000000000000000000600052604160045260246000fd5b6000601f19601f8301169050919050565b61103581610f0e565b811461104057600080fd5b5056fea26469706673582212209ef1c5318fbfba12e18bfb1706f3cd76758ca603d490a881ce907937f651a8a764736f6c63430008040033",
  "linkReferences": {},
  "deployedLinkReferences": {}
}